:020000040040BA
:1000000088EA4020412040003F2040003F2040003F
:100010003F2040003F2040003F2040000000000003
:100020000000000000000000000000001924400053
:100030003F20400000000000B9244000212540007E
:100040003F2040003F2040003F2040003F20400034
:100050003F2040003F2040003F2040003F20400024
:100060003F20400000000000B9194000CD194000B9
:10007000E11940003F2040003F2040003F20400069
:10008000F5194000091A40003F2040003F20400081
:100090003F2040003F2040003F2040003F204000E4
:1000A0005D4140003F2040003F2040003F20400095
:1000B0003F204000490440003F2040003F204000D6
:1000C0003F2040003F2040003F2040003F204000B4
:1000D0003F2040003F2040003F2040003F204000A4
:1000E0005D0440003F2040003F2040003F20400092
:1000F0003F2040003F2040003F2040003F20400084
:100100003F2040003F2040003F2040003F20400073
:100110003F20400000000000000000000000000040
:100120003F2040003F2040003F2040003F20400053
:100130003F2040003F2040003F2040003F20400043
:100140003F2040003F2040003F2040003F20400033
:100150003F2040003F2040003F2040003F20400023
:100160003F2040003F20400010B5054C237833B9B4
:10017000044B13B10448AFF300800123237010BD7A
:10018000C0094020000000009C9D40000C4B43B182
:100190000C480D4910B5AFF300800C48036823B933
:1001A00010BD0A48036833B97047094B002BF7D0DC
:1001B000BDE810401847064B002BF5D0184700BF8C
:1001C000000000009C9D4000C40940209C9D400010
:1001D0000000000070B582B0026BC36A1340019347
:1001E00000241C4E1C4DA84214BF00200120050114
:1001F0000BE00E2C1ED8019A04F10C0101238B4058
:10020000134210D10134102C22D00B2CF1D8019ABA
:100210000123A3401342F5D02B1956F82330002BAD
:10022000F0D09847EEE72B1956F82330002BE9D091
:100230009847E7E7019A04F10F0101238B4013422D
:10024000E0D02B1956F82330002BDBD09847D9E7A4
:1002500002B070BD78C940200040064030B4046E42
:1002600001238B4024EA03041578002D08BF0023E6
:1002700023430366446D4B000321994024EA0104A3
:10028000517899402143416530BC70474B780A78DA
:10029000134303678A884B8843EA024343677047E6
:1002A00000220260084B4360084B83604FF48023B8
:1002B000C36002230374012343748374C2740375FF
:1002C00043758375704700BF00A3E111808D5B000B
:1002D0000023037001234370704700230370202321
:1002E0004370FF23438040F6FF7383807047000014
:1002F000026B12F0807201D01920704710B40123F4
:100300000360CB7C002B18BF4FF000424B688C6819
:10031000B3FBF4F3013B1B029BB2CC6844F4000432
:1003200023430C7C240604F0706423434C7C240794
:1003300004F040542343134343600B7D002B14BF50
:100340004FF0807300230A6813434A7D002A14BFCC
:100350004FF000720022134383608B7D1B0203F475
:10036000407343F00C03C0F894300F4B984206D012
:100370000E4B98420DD000205DF8044B70470C4B9B
:1003800003F14001002243F8042F8B42FBD10020EF
:10039000F2E7084B03F14001002243F8042B8B42A3
:1003A000FBD10020E8E700BF00C00340004006404A
:1003B00074C94020B8C940200C4B994207D00B2982
:1003C0000BD806D0012303FA01F141627047436262
:1003D00070474FF40063436270470E2994BF0C319D
:1003E0000F31012303FA01F141627047FF0F00470B
:1003F00038B5114CA0420CBF102400240C440F4D02
:1004000045F824200AD10E4A4FF48074C2F8844182
:100410005B01DBB282F82833546009E0084A4FF0F0
:100420000054C2F880415B01DBB282F81D331460D6
:10043000044B984738BD00BF0040064078C94020B3
:1004400000E100E0B903400008B50248024B9847BC
:1004500008BD00BF00C00340D501400008B50248F8
:10046000024B984708BD00BF00400640D501400040
:1004700000B583B0134B98420CBF28201D20124BAF
:100480009847124B9B78FF2B1AD0EFF31083B3FAE7
:1004900083F35B09019372B6BFF35F8F00220C4BAD
:1004A0001A700199094A93780133937029B1012296
:1004B000074B1A70BFF35F8F62B603B05DF804FBA1
:1004C000FEE700BF004006403D1B400070C94020D1
:1004D0000A00402010B489014318022444504FF010
:1004E000FF319962196A5A605DF8044B70478901BF
:1004F00005234350704700EB8111CA61704700EB40
:1005000081114A62704700EB8111086A7047F0B4AC
:1005100086B00224019408240294202403948024A9
:1005200004940A9CE40B0594B0EB510F14D84C0CC6
:10053000A04217D2012501AF57F82540B1FBF4F4D2
:10054000260C84420AD386420DD90135052DF3D1FC
:10055000002006B0F0BC70470020FAE70020F8E762
:100560000120F6E700252AB106A901EB850151F823
:10057000141C1160002BF3D01D600120E9E700007E
:100580002DE9F0419CB00446484D19AB95E80700B1
:1005900003C31A8010AE05F10C070FCF0FC60FCFA3
:1005A0000FC63B6833600DAB05F1300207CA03C3C9
:1005B0001A7004AE3C350FCD0FC60FCD0FC62B6899
:1005C0003370002503953A4B02934A278DF80C703F
:1005D000384B01931320384B9847384E01A93046C9
:1005E000374B984702233A4631462046354EB047AE
:1005F0002A4606212046344EB047012201462046B5
:10060000324FB8473248334B98472A460721204695
:10061000B047202201462046B8472A4607212046F7
:10062000B047411C102289B22046B8472A4607210C
:100630002046B047811C4B2289B22046B8472A4643
:1006400007212046B047C11C842289B22046B84702
:100650002A4608212046B04719AA01462046DFF85D
:100660007880C0472A4609212046B04710AA014693
:100670002046C0472A462E212046B0470DAA0146F3
:100680002046C0472A4638212046B04704AA0146E2
:100690002046C0472A4606212046B047811C012239
:1006A00089B22046B8471CB0BDE8F08118994000D7
:1006B000801A060080D1F0083D1B400000800140F8
:1006C000891D4000DD064000750940002D0A4000EC
:1006D000D828320001004020B5094000F0B587B0AD
:1006E00004460E461746816002738361002505614A
:1006F00007209D4B984720600195059502230293A2
:100700000390072304938DF8147001A93046974B8A
:100710009847401B18BF0120404208B107B0F0BD08
:100720002568A87900EB400040008F4B9847606037
:10073000002301930493059307238DF804300223CB
:1007400002930390AB7903EB43035B000493237B99
:100750008DF8143001A9A068844B9847003018BF69
:10076000012040420028D9D127686068BB7903EB9B
:10077000430676000736B6B23A4606370021DFF860
:10078000F0C192F801E0157845EA0E2585EA4101AD
:1007900011F0807F18BF81EA0C010232BA42F0D119
:1007A000027843EA022383EA410212F0807F03D0F9
:1007B00082F4000282F01B02A6F10807012F12DD6D
:1007C0000123DFF8ACE1C1184D78C15C41EA052195
:1007D00081EA420212F0807F18BF82EA0E020233E1
:1007E0009BB2BB42EFDB304410F8083C83EA420284
:1007F00012F0807F03D082F4000282F01B0222F00C
:100800007F450023019305938DF80460360A8DF827
:10081000056002230293CDF80CD003230493237BBD
:100820008DF8143001A9A068504B984728B34FF0B9
:10083000FF33AB4240F08B802568A87998B1002344
:100840000133DAB29042FBD86268431EDBB2013357
:1008500003EB430302EB4301002053791844C0B279
:1008600006329142F9D140003F4B98476061AB7925
:1008700073B100270126BE4637E09DF802209DF89F
:10088000003043EA02439DF8012043EA0223D0E707
:100890006FF0030042E70130C0B262685319197962
:1008A00081421CD35B79002BF5D062682A445379CE
:1008B000002BF0D033461178626902F81310626998
:1008C00002EB430250700133DBB262682A44991B89
:1008D00092F805C0C9B28C45EDD81E46DBE701375A
:1008E000FFB223689B799F4207D207EB47035A0068
:1008F0001546636813447046D4E75BB31046013B6A
:10090000DBB2013303EB430302EB430200214379E3
:100910001944C9B206308242F9D1F1B16269137843
:10092000092B0FD000230133DBB28B420CD012F81D
:10093000020F0928F7D15BB2B3F1FF3F10D0237744
:100940000020EBE60023F6E76FF00300E6E66FF029
:100950000300E3E66FF00300E0E66FF00300DDE67E
:100960006FF00300DAE600BF116A4000BD1D4000D1
:100970001B00800003689A79D2B110B444682378D0
:100980008B420ED0A31D013AD2B2013202EB4202D9
:1009900004EB4202934209D01C4613F8060B88422E
:1009A000F8D1B4F801005DF8044B70470020FAE775
:1009B0000020704730B587B000230193049305935E
:1009C0008DF804100B0A8DF8053002230293039270
:1009D00003689A79BAB14468B4F801308B420FD0F9
:1009E000A31D013AD2B2013202EB420204EB4202F1
:1009F000934216D01C460633B4F801508D42F7D10D
:100A0000E2780132D2B20492037B8DF8143001A94E
:100A10008068054B9847003018BF0120404207B05E
:100A200030BD0022EFE700BF691E400000B589B06D
:100A30008DF807200023039307938DF80C10090A03
:100A40008DF80D10022304930DF107030593012384
:100A50000693037B8DF81C3003A98068044B9847EC
:100A6000003018BF0120404209B05DF804FB00BF10
:100A7000691E40008269074B03EB52135B02D96B7E
:100A800002F01F02012303FA02F20A420CBF1846C9
:100A9000002070470707200030B587B004460D4698
:100AA000002205210D4B98470023019305938DF8F3
:100AB0000400000A8DF80500022302930395092320
:100AC0000493237B8DF8143001A9A068044B984748
:100AD000003018BF0120404207B030BD750940000A
:100AE000BD1D4000F0B585B004460E46174D184FA9
:100AF0002046A84728B301A92046B847034610BBA3
:100B00009DF80430626912F81320092AF0D1227F7F
:100B10009B1A33709DF8053073709DF808309DF86E
:100B200006101A0942EA011272809DF8072003F0AC
:100B30000F0343EA0213B3809DF80930B371002319
:100B400001E06FF00303184605B0F0BD750A4000E0
:100B5000990A400010B51048104B98473E210020DC
:100B60000F4B98470F4CA0470028FCD00E4B9847DE
:100B70000E4A0F4B9A620F4CA0470028FCD002206F
:100B80000D4B984700200D4B98470D4B98470D484B
:100B9000024B984710BD00BF000E270715224000EA
:100BA000B91A40000D1B40001D1B4000013F1820DA
:100BB00000060E402D1B40001D1A4000551A400033
:100BC0000921400000A3E11110B50446104B9847DD
:100BD00080232360636843F001036360636843F02C
:100BE00010036360636823F0800363600021204684
:100BF000084B9847636823F002036360636823F03F
:100C00000403636000212046034B984710BD00BFDA
:100C10005D1B4000891B40009F1B40002DE9F041F7
:100C200004460D46164615491846154B9847074683
:100C300000231A4629682046DFF85C80C047082256
:100C4000296820460F4B9847FAB2296820460E4B78
:100C500098470822296820460C4B98477208296853
:100C600020460B4B984786F0010202F001022968EA
:100C70002046084B9847BDE8F08100BF80D1F008BE
:100C80007B1C4000671C4000911C4000211C400060
:100C9000E51B4000031C4000B91C400008B5436838
:100CA00013F0040F06D009680F2900D908BD064BC0
:100CB000984708BD09680329F8D8012303FA01F110
:100CC000C943014B9847F1E7891B40001AB110B4A2
:100CD0000C46114406E00020704714F8013BC36045
:100CE000A1420CD043F69923026912F0020FF4D10D
:100CF000013BF9D16FF002005DF8044B7047002012
:100D0000FAE73AB170B415460C460D44FF2640F29E
:100D1000012112E000207047C66043F69923026962
:100D200031EA020204D0013BF9D16FF002000EE07B
:100D3000836804F8013BA5420BD043F6992302696E
:100D400012F0020FE8D1013BF9D16FF0020070BC44
:100D500070470020FBE700002DE9F04180B90C4608
:100D60009046002A0FDD8F18084E094D3068214645
:100D70002B6898470134BC42F8D14046BDE8F08169
:100D80004FF0FF38F9E78046F7E700BF00CA402080
:100D9000F8C940200138022815D82DE9F0410E4647
:100DA00014469AB10D46DFF838800C4FD8F8000091
:100DB00015F8011B3B68984700280ADBA81B013C7B
:100DC000F4D1BDE8F0814FF0FF3070471046BDE828
:100DD000F0814FF0FF30BDE8F08100BFFCC940203A
:100DE00000CA40202DE9F0414FF400429E4B5A606A
:100DF000BFF34F8FBFF36F8F9C4B0022C3F850227D
:100E00005A6942F400325A61BFF34F8FBFF36F8FBC
:100E1000D3F88070C7F34E3607F007000430C7F3ED
:100E2000C907B7FA87FE0EF01F0EBFF34F8F4FF0C2
:100E3000FF3404FA00FC06FA00F004FA0EF407FA94
:100E40000EFE1D463A46734640EA0301C5F860129D
:100E5000013A2344B2F1FF3FF6D1013E6044B6F1BE
:100E6000FF3FEFD1BFF34F8F804B5A6942F480327E
:100E70005A61BFF34F8FBFF36F8F7D4A7D49516039
:100E8000A1F580715160BFF34F8FBFF36F8FD3F81F
:100E9000902222F00102C3F89022D3F8942222F08B
:100EA0000102C3F89422BFF34F8FBFF36F8F0A2064
:100EB000714CA0470B20A0470C20A0471020A04752
:100EC0001120A0476D4E4FF48078C6F81080C6F808
:100ED000A080C6F830806A4C4FF400656561C4F8A4
:100EE000A0506566C4F8905065652562C4F88450CA
:100EF000236F23F400632367636F23F40063636746
:100F0000C4F8C050C4F8D450C4F8B0504FF4001323
:100F10002366C4F8903063656362C4F88030226F42
:100F200022F400122267626F22F40012626763608B
:100F3000544AD2F8143143F01003C2F8143102F5C8
:100F4000B22210231366C2F8903053655362C2F880
:100F50008030116F19431167516F19435167536006
:100F600008222266C4F8902062656262C4F880207C
:100F7000216F21F008012167616F21F0080161678D
:100F800062602366C4F8903063656362C4F88030A1
:100F9000226F22F010022267626F22F01002626755
:100FA000636000234FF400524FF060513046364FDB
:100FB000B84700234FF080424FF060513046B847A9
:100FC0000123FF224FF000613046B84701233F2242
:100FD0004FF000612D48B84701234FF4C0324FF065
:100FE00000612046B847012342464FF00061304679
:100FF000B84701232A464FF000613046B847012325
:101000004FF400224FF000612148B84700234FF40D
:1010100000724FF080513046B8474FF400713046AF
:101020001C4B98474FF0805174201B4CA0474FF049
:1010300080517520A0474FF080517620A0474FF097
:1010400080517B20A0474FF060511820A0474FF0FF
:1010500060510620A0474FF060515320A047532015
:101060000E4B9847BDE8F08150180E4000ED00E0AF
:10107000000C0E400C08005A3D1B400000120E40B0
:10108000000E0E40008008406917400000160E4018
:1010900000140E4075164000391840000118400039
:1010A00030B40468B4F5F07F02D340F2DF1404607A
:1010B0001468B4F5F07F02D340F2DF1414600C68BA
:1010C000B4F5A07F02D340F23F140C601C68B4F565
:1010D000A07F02D340F23F141C6004681568AC4244
:1010E00001D9056014600A681868824201D9086055
:1010F0001A6030BC7047000010B582B006200A4B61
:101100009847002303222C210848094CA0470023BC
:101110000193019BFE2B05D8019B01330193019B99
:10112000FE2BF9D902B010BD1D1840000080004010
:10113000B11B400070B582B005460E46144606202D
:10114000144B98470023032229461348134DA84700
:1011500000230193019BFE2B05D8019B01330193D2
:10116000019BFE2BF9D90CB902B070BD06200C4BC7
:1011700098472246314608480A4B98470023019376
:10118000019B5E2BF0D8019B01330193019B5E2BE9
:10119000F9D9E9E71D18400000800040B11B40006C
:1011A00001184000CD0C400030B583B004460D4618
:1011B00006200A4B98472A4621460948094B98477A
:1011C00000230193019BFE2B05D8019B0133019362
:1011D000019BFE2BF9D903B030BD00BF01184000C0
:1011E00000800040CD0C4000014630B1034A044B62
:1011F000013BFDD19142FAD870477047A1860100AA
:10120000A086010000B583B058B948238DF8073097
:1012100001220DF107013620044B984703B05DF819
:1012200004FBE8238DF80730F2E700BF35114000DA
:1012300010B584B0ADF80E00013A0244ADF80C20B0
:10124000ADF80A10013B1944ADF80810030A8DF8F7
:1012500004308DF80500C2F307238DF806308DF8B1
:10126000072004220DEB02012A20104CA047002287
:1012700011461046A0479DF80B308DF804309DF8BC
:101280000A308DF805309DF809308DF806309DF84C
:1012900008308DF8073004220DEB02012B20A04707
:1012A000002211461046A04704B010BD3511400081
:1012B00008B5002211462920014B984708BD00BF00
:1012C0003511400010B4C0F30744C0F30721064BAA
:1012D00003F5B4621C705970987003339342F9D1CE
:1012E0005DF8044B704700BFDC09402010B584B0A6
:1012F000ADF80600ADF80410030A8DF80C30C0B24A
:101300008DF80D008DF80E308DF80F00042203A922
:101310002A200E4CA047002211461046A0479DF8F7
:1013200005208DF80C209DF804308DF80D308DF8D7
:101330000E208DF80F30042203A92B20A047002295
:1013400011461046A04704B010BD00BF3511400043
:101350002DE9F04387B08146032706AE46F8087DA5
:101360005D4D28465D4B9847002400945C4B3A46FF
:1013700031462846DFF89881C0472246394628463C
:10138000584B984731462846574B984701202860CC
:10139000686122462146554EB047C820544DA847A3
:1013A000224621461120B047C820A84781238DF846
:1013B0000A308DF80B4010264FF001084B4F2546A0
:1013C00042460DF10A01FB20B8479DF80A3001336F
:1013D0008DF80A300395039BFE2B05D8039B013340
:1013E0000393039BFE2BF9D92A462946D320B847FD
:1013F0000620404B984742460DF1090136483E4BC6
:1014000098470395039BFE2B05D8039B0133039359
:10141000039BFE2BF9D99DF80930B3401C4342468B
:101420000DF10B01FB20B8470395039A40F6FE73BC
:101430009A4206D81A46039B01330393039B9342B7
:10144000F9D9083E16F1080FBAD149F288439C42F7
:1014500003D0012007B0BDE8F08306AD482305F8AE
:10146000013D012229463620204EB0476420204C01
:10147000A04704238DF8173001222946CF20B0471A
:101480006420A04706238DF81730012229463A2010
:10149000B0476420A047002211461320B0476420C3
:1014A000A047164B98476420A0470020144B98474C
:1014B0006420A047B9F80430B9F80020002108469C
:1014C000104CA047D9F808000F4B98470021084658
:1014D0000E4B98470020BDE700800040C90B40003C
:1014E000002D3101211C40009D0C400035114000B1
:1014F000E911400001184000030D4000B112400006
:101500000512400031124000C5124000ED124000AB
:101510001D0C40002DE9F04184B00390029101922E
:1015200004AA42F8103D134601AA02A903A8224CBE
:10153000A047BDF80C00BDF80810009B01335B1AF2
:10154000019A0132121A9BB292B21C4CA0471C4B5A
:1015500098470399019D691A009D0135029BED1A78
:1015600001FB0555174BA3FB05231B0A63B15C1E4A
:10157000DFF858804FF4B467134E39464046B04701
:10158000013CB4F1FF3FF8D10E49A1FB0531090A36
:10159000C1EB0111A5EB411101EB41010B480A4BD5
:1015A00098474FF4A0734FF4F07200210846034CA3
:1015B000A04704B0BDE8F081A11040003112400006
:1015C000F910400089888888A9114000DC09402072
:1015D000002A4AD02DE9F84F07468846154656009E
:1015E000C6F103060024DFF888A005E0063606EB06
:1015F00084060134A54235D3A7422CBFA7EB040BC8
:101600004FF0000BA8452CBFA8EB0501002107EB0C
:1016100004090B464A465846D04708EB05010B46DD
:101620004A465846D047AF422CBFA7EB050B4FF0B8
:10163000000BA0452CBFA8EB0401002107EB050916
:101640000B464A465846D04708EB04010B464A462B
:101650005846D047002EC9DB631B0A3606EB8306CB
:10166000013DC6E70020BDE8F88F0120704700BFAC
:1016700015154000016370474264B1F1C05F3AD074
:1016800013D8B1F1006F25D0B1F1805F0AD1036F9B
:1016900013430367436F416F0B4023EA0203436721
:1016A000426070470029FBD17047B1F1205F21D023
:1016B00009D8B1F1005FF3D1036F13430367436FA0
:1016C00013434367ECE7B1F1405F13D0B1F1605FC2
:1016D00010D0E5E710B4016F046FD34321401C46DE
:1016E00019400167436F416F0B40234043674260DD
:1016F0005DF8044B7047036F016F0B4023EA020350
:101700000367436F13434367CAE7416412F0010F55
:101710000DD1016612F00A0F0BD0016212F0020F18
:1017200009D112F0080F08D0C0F8841005E0416616
:10173000F0E74162F2E7C0F8801041610160704754
:1017400010B4019C41644CB901664BB101654AB9C2
:101750004163016101605DF8044B70474166F4E745
:101760004165F4E70163F4E770B582B005461646BB
:101770001C46B1F1005F14D00AD9B1F1405F24D00A
:10178000B1F1605F21D0B1F1205F17D000201AE0E5
:10179000B1F1805F05D0B1F1C05F02D0B1F1006F4F
:1017A000F4D132462846114B984714F0010F02D16C
:1017B0002E66012007E06E66012004E01A463146DD
:1017C0000B4B9847012002B070BD04F00103009359
:1017D000C4F38003B1F1605F14BF002201223146DF
:1017E0002846044CA0470120EDE700BF79164000D1
:1017F0000B17400041174000C06C7047806C704769
:10180000054B03EB50135B0200F01F00012202FAAC
:1018100000F01863704700BF07072000054B03EB7B
:1018200050135B0200F01F00012202FA00F058631F
:10183000704700BF0707200070B582B00D46464CC8
:1018400004EB5014640201F0F043B3F1005F59D08F
:101850000AD8B3F1805F2FD0B3F1C05F3FD0B3F1AE
:10186000006F16D0002012E0B3F1405F5DD0B3F1FD
:10187000605F5AD0B3F1205FF4D100F01F01012660
:101880002A4606FA01F12046344B9847304602B00A
:1018900070BD00F01F000126864032464FF0006107
:1018A00020462F4B984715F0010F02D126660120E4
:1018B000EDE766660120EAE700F01F00012686409A
:1018C00032464FF080512046254B984715F0010FC6
:1018D00002D126660120DAE766660120D7E700F02C
:1018E0001F000126864032464FF0C05120461C4B57
:1018F000984715F0010F02D126660120C7E76666FA
:101900000120C4E700F01F000126864032464FF058
:1019100000512046124B984715F0010F02D1266660
:101920000120B4E766660120B1E705F0605200F0DF
:101930001F01012605EA06030093C5F38003B2F1F7
:10194000605F14BF0022012206FA01F12046054C17
:10195000A04730469BE700BF070720000B17400059
:1019600079164000411740002DE9F04104468846B1
:101970000E4B9847054620460D4B9847054013D01F
:101980000C4C04F1600603E0B4420DD010345DB19C
:1019900020684045F8D161682942F5D0E36898474E
:1019A000636825EA0305EFE7BDE8F081F917400019
:1019B000FD1740007C0F402008B50A210148024B6A
:1019C000984708BD000E0E406919400008B50B216C
:1019D0000148024B984708BD00100E4069194000AD
:1019E00008B50C210148024B984708BD00120E4073
:1019F0006919400008B510210148024B984708BDFD
:101A000000140E406919400008B511210148024B2D
:101A1000984708BD00160E4069194000032811D0F0
:101A2000042812D002280CBF4FF480710021084A0C
:101A3000136B23F440730B431363936E13F0080F7F
:101A4000FBD070474FF44071F1E74FF40071EEE7BF
:101A500000060E40174A136B23F0700318431063FF
:101A6000936E13F0080F0AD14FF4805311498A6E18
:101A700012F0080F03D1013BF9D1012070470D4A44
:101A8000136B23F0030343F002031363936E13F00D
:101A9000080F0AD14FF4805306498A6E12F0080FDE
:101AA00005D1013BF9D1012070470020704700208B
:101AB000704700BF00060E40A0B90E48036A090235
:101AC00089B20D4A1A400D4B134319430162024675
:101AD000936E13F0010FFBD0064A116A084B0B43BB
:101AE0001362704703490B6A064A1A40064B1343B8
:101AF0000B62704700060E40FCFFC8FF0100370074
:101B000000003701FCFFC8FE02003701024B986E4F
:101B100000F48030704700BF00060E404FF00052C6
:101B2000014B9A62704700BF00060E40024B986E50
:101B300000F00200704700BF00060E4000F07F007A
:101B4000054BC3F80C01D3F80C2142F01022C3F866
:101B50000C210020704700BF00060E4008B5074B5F
:101B6000984203D0064B984204D008BD1520054B7F
:101B7000984708BD2A20034B9847F6E700800040AD
:101B8000008005403D1B4000436823F47023436000
:101B90004368090401F470211943416070474368A8
:101BA00023F07F434360436843EA0161416070472B
:101BB00030B443F69924056915F0020F03D1013CB6
:101BC000F9D101200CE0446814F0020F06D0120491
:101BD00002F4702211430BB141F08071C16000200A
:101BE00030BC704732B900EB8100036B23F0010376
:101BF0000363704700EB8100036B43F00103036351
:101C0000704732B900EB8100036B23F002030363DA
:101C1000704700EB8100036B43F0020303637047DE
:101C2000042A03D06AB1082A16D0704700EB81005D
:101C3000036B23F008030363036B43F004030363A4
:101C4000704700EB8100036B23F008030363036B11
:101C500023F004030363704700EB8100036B43F040
:101C600008030363E1E700EB81010B6B23F0F00352
:101C70000B630B6B1A430A637047431E1944B1FB95
:101C8000F0F0431EFE2B94BF00B24FF0FF307047C0
:101C90007AB110B4144600EB81010B6B23F47F433F
:101CA0000B630A6B42EA04220A6300205DF8044BCE
:101CB00070474FF0FF30704710B400EB8101086BA4
:101CC00080B208630C6B44EA036343EA02430B638C
:101CD0005DF8044B70470000284B99424BD8A3F5A0
:101CE0007A5399422DD910B4254CA4FB0234A40B8D
:101CF000033C244B0B449B00B2FBF3F2033AFF2C52
:101D00001DD9002101316408FF2C01D90629F9D918
:101D1000FF2A07D9062905D801315208FF2A01D91F
:101D20000629F9D913029BB2090401F4E0210B43FF
:101D3000E4B22343036100205DF8044B70470021A7
:101D4000E6E74900B2FBF1F2033AFF2A11D900237A
:101D500001335208FF2A01D9062BF9D9110289B2A1
:101D60001B0403F4E0230B43D2B21A4302610020A8
:101D700070470023F2E70120704700BF801A060079
:101D8000F11976050012FD3F08B54FF0FF3282626F
:101D9000026A80220260026B082202602022026036
:101DA000042202600A684968034B9847012814BF5F
:101DB0000020012008BD00BFD91C4000CA68002ACD
:101DC0004CD070B48C68002646604B681B0203F44C
:101DD000407343F480530D7C2D0405F4FE052B4322
:101DE0004360C6604D685DB10B78012D02DD4E7811
:101DF00046EA0323022D04DD897841EA032300E04B
:101E00000023C36001230360022512E0056013F084
:101E1000020F1BD0036B2370036A13F0010FFBD07A
:101E2000036A002070BC7047036B04F8013B013A61
:101E3000F2D0036A13F4807F14D147F23051012AA3
:101E4000E4D013F0020FEFD1002AE5D0036A13F4B7
:101E5000807F05D10139F2D10920E3E701207047E5
:101E60000520DFE70520DDE7CB68002B43D070B409
:101E70008C68002646600A7C120402F4FE024D685B
:101E80002D0205F440752A434260C6604D685DB17D
:101E90000A78012D02DD4E7846EA0222022D04DD89
:101EA000897841EA022200E00022C26004E014F8CE
:101EB000012B4263013B0FD0026A12F4807F1ED1D6
:101EC00012F0040FF3D1026A12F4807F15D112F0E0
:101ED000040FECD1002BF6D1036A13F4807F11D1EB
:101EE00013F0040FF8D002230360036A13F0010F0C
:101EF000FBD0002004E001207047052000E0052011
:101F000070BC70470520FBE7436913F0020F02D055
:101F1000C1610020704701207047436913F0010F31
:101F200003D083690B70002070470120704710B404
:101F30000B01934214D9C9004B0803EBC202B2FB58
:101F4000F1F2D3085C1E4FF6FE718C4201D90120DC
:101F500017E0416841F4002141600CE0012010E0ED
:101F6000590801EBC202B2FBF3F2D3085C1E4FF634
:101F7000FE718C42F2D8120402F4E0221A4302628B
:101F800000205DF8044B7047084BC0F8E430002394
:101F900043604362836288230360242303604FF419
:101FA000807303604FF40023036070470041535572
:101FB00070B505460C4616460F4B984700220F4B4E
:101FC0001A60A4B13246216828460D4B9847024654
:101FD00078B96368A1680B4321690B43E1680B433F
:101FE00006490B6069680B436B60104670BD0122A7
:101FF000FBE70122F9E700BF891F4000EC0F4020FA
:102000002F1F400040230360704710230360704778
:10201000436913F0020F04D0C1F30801C16100202D
:10202000704701207047436913F0010F05D08369A1
:10203000C3F308030B600020704701207047FEE7E0
:1020400000B583B0254B264A9A4210D0254B234A2F
:102050009A420CD2013B9B1A23F00303043313442E
:102060001F4951F8040B42F8040B9A42F9D11E4B58
:102070001E4A9A420AD2013B9B1A23F003030433FF
:102080001344002142F8041B9342FBD1184A194B18
:1020900023F07F039360EFF31083B3FA83F35B09BC
:1020A000019372B6BFF35F8F0022134B1A70019930
:1020B000124A136843F470031360BFF34F8FBFF3EA
:1020C0006F8F29B101220C4B1A70BFF35F8F62B67C
:1020D0000B4B98470B4B9847FEE700BF0000402092
:1020E0009C9D4000C009402088CA4020C009402073
:1020F00000ED00E0000040000A00402088ED00E014
:10210000996940009D4640003B4B1B6B03F0030365
:10211000012B1DD083B1022B36D0374B1B6B03F044
:102120007003702B5FD0344B1A6B3449C2F3021228
:102130000B68D3400B607047314B5B6913F0800F25
:1021400014BF4FF400424FF4FA422C4B1A60E4E7FC
:10215000294B1B6A13F0807F03D02A4A274B1A6051
:10216000DBE7294A254B1A60234B1B6A03F07003F7
:10217000102B05D0202BD0D1224A204B1A60CCE75F
:10218000224A1E4B1A60C8E71B4B1B6A13F0807F64
:1021900016D01C4A194B1A60174B1B6B03F0030334
:1021A000022BBAD1144A916A926A1448C1F30A41C7
:1021B000036801FB0333D2B2B3FBF2F30360ACE775
:1021C000114A0E4B1A600C4B1B6A03F07003102B64
:1021D00005D0202BE0D10B4A084B1A60DCE70B4AF4
:1021E000064B1A60D8E7054A13680949A1FB031397
:1021F0005B081360704700BF00060E400C004020D3
:1022000010180E40001BB70000093D0000127A00B4
:10221000ABAAAAAA164B984213D9164B984215D9C5
:10222000154B984216D9154B984217D9144B984222
:1022300018D9144B984294BF134A144A144B1A608D
:1022400070474FF08062124B1A607047114A104B72
:102250001A607047104A0E4B1A6070470F4A0C4BB9
:102260001A6070474FF00422094B1A60704700BF94
:10227000BFF35E017FE7BD023FDB1C04FFCE7B05A1
:10228000BFC2DA067FB63908000500040006000464
:10229000000C0E40000100040002000400030004D2
:1022A0000A4B1B6853B1094B1B681A180849914225
:1022B00008DB1046054A106018467047054A034B74
:1022C0001A60F0E74FF0FF30704700BFF00F40207A
:1022D000FCFF452088EC40204FF0FF3070474FF462
:1022E00000534B600020704701207047002070476A
:1022F00000F1080343604FF0FF328260C360036166
:1023000000230360704700230361704743684B60FC
:102310009A688A609A68516099600861036801331D
:102320000360704730B40D68B5F1FF3F02D000F193
:10233000080202E0026904E01A4653681C68A542DC
:10234000FAD253684B6099608A60516008610368F3
:102350000133036030BC7047036942688168916053
:102360008268416851605A68904205D0002202613B
:10237000186801381860704782685A60F6E70000F4
:102380000D4B1B68B3F1FF3F0AD04FF0800372B6CC
:1023900083F31188BFF36F8FBFF34F8F62B6FEE7F1
:1023A0004FF0800372B683F31188BFF36F8FBFF3D2
:1023B0004F8F62B6FEE700BF10004020064800685D
:1023C000006880F3088862B661B6BFF34F8FBFF331
:1023D0006F8F00DF00BF000008ED00E0DFF80C00A9
:1023E000016841F4700101607047000088ED00E071
:1023F0004FF0807340F8043C40F8081C054B40F84F
:102400000C3C40F8202C6FF0020340F8243C443888
:10241000704700BF81234000064B19680868B0E888
:10242000F04F80F30988BFF36F8F4FF0000080F307
:102430001188704704C84020704700BF4FF08003E8
:1024400072B683F31188BFF36F8FBFF34F8F62B6FD
:102450000B4A136801331360012B0FD1094B1B6822
:1024600013F0FF0F0AD04FF0800372B683F3118888
:10247000BFF36F8FBFF34F8F62B6FEE7704700BFA9
:102480001000402004ED00E00A4B1B6853B94FF0E8
:10249000800372B683F31188BFF36F8FBFF34F8F42
:1024A00062B6FEE7013B034A13600BB983F3118860
:1024B000704700BF10004020EFF30980BFF36F8F1B
:1024C000154B1A681EF0100F08BF20ED108A20E986
:1024D000F04F10604DF8043D4FF0800072B680F36D
:1024E0001188BFF34F8FBFF36F8F62B601F0AAF868
:1024F0004FF0000080F3118808BC19680868B0E844
:10250000F04F1EF0100F08BFB0EC108A80F309885E
:10251000BFF36F8F704700BF04C84020704700BFF3
:1025200008B5EFF311834FF0800272B682F3118881
:10253000BFF36F8FBFF34F8F62B6054B984718B14B
:102540004FF08052034B1A60002383F3118808BDBB
:10255000B132400004ED00E0034A044B1A60072248
:10256000043B1A60704700BF7FA9030014E000E03D
:1025700000B583B0254B1A78D2B20192FF221A70AF
:102580001B78DBB28DF803309DF8033003F0800335
:102590001F4A137007221F4B1A609DF8033013F077
:1025A000800F10D0062200E00A469DF803305B0041
:1025B000DBB28DF803309DF80330511E13F0800F0D
:1025C000F2D1144B1A60134A13681B0203F4E06340
:1025D0001360019BDBB20D4A13700F4B1A6842F473
:1025E00060021A601A6842F060421A600B4B98470A
:1025F00000220B4B1A600B4B98470B4A136843F0B1
:1026000040431360094B9847094B984700E400E0AA
:10261000F40F4020F80F402020ED00E05925400045
:1026200010004020DD23400034EF00E0BD234000D7
:1026300081234000EFF305830F2B11D9124A9B5CD5
:10264000DBB2124A12789A420AD94FF0800372B66E
:1026500083F31188BFF36F8FBFF34F8F62B6FEE72E
:102660000B4B1B6803F4E0630A4A126893420AD9D1
:102670004FF0800372B683F31188BFF36F8FBFF3FF
:102680004F8F62B6FEE77047F0E300E0F40F4020A2
:102690000CED00E0F80F402038B5044610F0070FAD
:1026A00002D020F007040834114B9847114B1B68E7
:1026B00093B1114B1B681C44A34213D24BF2F77227
:1026C00094420FD80B4A15681D440B4B1C600B4BF2
:1026D00098474DB1284638BD094B23F00703054AFA
:1026E0001360E6E7054B9847064B98470025F1E74E
:1026F00095324000FC0F402000C84020FD334000D0
:1027000008104020A341400050B14FF0800372B642
:1027100083F31188BFF36F8FBFF34F8F62B6FEE76D
:102720007047000038B504461546026C5AB9036874
:10273000002B2ED140681B4B984700236360A36B8E
:102740000133A36338BD6DB98068174B9847A36800
:10275000226C1344A360626893421CD32368A36075
:102760000020ECE7C068104B9847236C5B42E2689E
:102770001A44E26021688A4202D262681344E3602C
:10278000022D0AD1A36B53B1A36B013BA3630020BD
:10279000D5E70020D3E70020D1E70020CFE70020D5
:1027A000CDE700BF453A4000816F400030B583B0AF
:1027B0000190446D74B1A26BE36B9A4215D34FF054
:1027C000800372B683F31188BFF36F8FBFF34F8F0F
:1027D00062B6FEE74FF0800372B683F31188BFF351
:1027E0006F8FBFF34F8F62B6FEE7A26B934203D8A1
:1027F0000025284603B030BD0A4601A920460B4BF0
:1028000098470546A36CB3F1FF3F0AD1636A002BDA
:10281000EFD004F12400064B9847002818BF01258B
:10282000E7E7A36C0133A364E3E700BF252740007B
:1028300019384000026C72B110B50346C4681444E4
:10284000C4604068844201D31868D8600846D968DB
:10285000014B984710BD7047816F4000F8B50446A2
:10286000224B9847A36C002B1BDD214D214F224E9C
:102870000BE0636AABB104F12400B04778B9A36CF4
:10288000013BA364A36C002B0BDD636D002BF0D028
:1028900000212046A8470128F1D1B847EFE7B84703
:1028A000EDE74FF0FF33A364144B98470F4B984765
:1028B000636C002B14DD236993B104F110060E4DF7
:1028C0000C4F07E0636C013B6364636C002B07DD16
:1028D00023692BB13046A8470028F3D0B847F1E769
:1028E0004FF0FF336364054B9847F8BD3D2440002B
:1028F000AD27400075394000193840008924400058
:1029000038B508B304460D461D4B98472268216C24
:10291000E36B03FB01F3D01860600020A063A260AA
:102920005B1A1344E3604FF0FF336364A364FDB9A3
:1029300023692BB104F11000124B984701280ED0E7
:10294000114B9847012038BD4FF0800372B683F3D6
:102950001188BFF36F8FBFF34F8F62B6FEE74FF062
:1029600080520A4B1A60BFF34F8FBFF36F8FE7E7B8
:1029700004F11000064DA84704F12400A847DFE742
:102980003D244000193840008924400004ED00E057
:10299000F1224000F8B550B94FF0800372B683F3CE
:1029A0001188BFF36F8FBFF34F8F62B6FEE7064605
:1029B00017460D4689B101FB00F05930124B98477C
:1029C0000446E8B94FF0800372B683F31188BFF371
:1029D0006F8FBFF34F8F62B6FEE758200A4B9847C0
:1029E00004460028EED02060E663256401212046DD
:1029F000064B984784F85070002363652046F8BD65
:102A000000F158030360EFE79926400001294000D8
:102A10002DE9F04F85B00192B8B1044601B3022B05
:102A20002CD01D468846664B9847002834D1019B20
:102A3000002B38D04FF0800372B683F31188BFF3B8
:102A40006F8FBFF34F8F62B6FEE74FF0800372B611
:102A500083F31188BFF36F8FBFF34F8F62B6FEE72A
:102A6000026C002ADBD04FF0800372B683F311882A
:102A7000BFF36F8FBFF34F8F62B6FEE7E26B012AA1
:102A8000CFD04FF0800372B683F31188BFF36F8FFE
:102A9000BFF34F8F62B6FEE700274A4EDFF850A122
:102AA000DFF82C9142E00027F7E72A46414620460E
:102AB000454B9847636D9BB129462046434B984749
:102AC000012807D14FF08052414B1A60BFF34F8F5E
:102AD000BFF36F8F3F4B9847012005B0BDE8F08FE3
:102AE000636A73B104F124003B4B98470128F1D18C
:102AF0004FF08052364B1A60BFF34F8FBFF36F8F8A
:102B0000E8E70028E6D04FF08052314B1A60BFF35F
:102B10004F8FBFF36F8FDDE72E4B98470020DCE728
:102B200020462E4B98472E4B98470127B047A26B63
:102B3000E36B9A42B9D3022DB7D0019B002BEBD0A7
:102B40000FB902A8D047234B9847264B9847B04768
:102B5000636CB3F1FF3F01D100236364A36CB3F155
:102B6000FF3F01D10023A3641A4B984701A902A893
:102B70001D4B9847E0B9B047D4F838B0E76B154B18
:102B80009847BB45CCD1019904F11000174B9847E9
:102B90002046124B9847124B98470028C5D14FF05A
:102BA0008053C9F80030BFF34F8FBFF36F8FBCE77E
:102BB00020460A4B98470A4B984700208DE700BFF4
:102BC000813940003D24400025274000AD274000CA
:102BD00004ED00E089244000193840005D284000E1
:102BE000FD33400095324000E13840001537400089
:102BF000B1384000002836D02DE9F04104460029C4
:102C00003CD0022B48D01E4615468846354B984787
:102C1000EFF311874FF0800372B683F31188BFF38F
:102C20006F8FBFF34F8F62B6A26BE36B9A4201D3F3
:102C3000022E4FD13246414620462B4B9847A36C7B
:102C4000B3F1FF3F41D1636D002B33D031462046B5
:102C5000264B9847002D3FD001283DD1286087F3AF
:102C60001188BDE8F0814FF0800372B683F31188BC
:102C7000BFF36F8FBFF34F8F62B6FEE7006C002883
:102C8000BFD04FF0800372B683F31188BFF36F8F0C
:102C9000BFF34F8F62B6FEE7E06B0128B3D04FF071
:102CA000800372B683F31188BFF36F8FBFF34F8F2A
:102CB00062B6FEE7636A8BB104F124000C4B9847BF
:102CC00075B168B101202860C9E7A36C0133A36422
:102CD0000120C4E70020C2E70120C0E70120BEE7D1
:102CE0000120BCE73526400025274000AD274000E5
:102CF000193840002DE9F04784B0019298B104469C
:102D0000E1B198460F46614B984728BB019B53B3EE
:102D10004FF0800372B683F31188BFF36F8FBFF358
:102D20004F8F62B6FEE74FF0800372B683F31188CF
:102D3000BFF36F8FBFF34F8F62B6FEE7026C002ABE
:102D4000DFD04FF0800372B683F31188BFF36F8F2B
:102D5000BFF34F8F62B6FEE700264D4DDFF860A14E
:102D6000DFF83C914BE00026F7E7E568394620465E
:102D7000484B9847B8F1000F1DD1A36B013BA363EB
:102D8000236813B9444B9847606023696BB104F121
:102D90001000424B9847012807D14FF08052404B1A
:102DA0001A60BFF34F8FBFF36F8F3E4B98470120E0
:102DB00004B0BDE8F087E560636A002BF5D004F14C
:102DC0002400364B98470028EFD04FF08052344B08
:102DD0001A60BFF34F8FBFF36F8FE6E7314B984711
:102DE0000020E5E7A84760682F4B98472D4B984790
:102DF00030E020462D4B98472D4B98470126A84799
:102E0000A36B002BB1D1019B002BE7D00EB902A818
:102E1000D047244B9847274B9847A847636CB3F19A
:102E2000FF3F01D100236364A36CB3F1FF3F01D1E5
:102E30000023A3641B4B984701A902A81E4B984787
:102E4000E8B9A847A66B174B9847002ED1D1236845
:102E5000002BC7D0019904F12400184B9847204655
:102E6000124B9847124B98470028C7D14FF0805318
:102E7000C9F80030BFF34F8FBFF36F8FBEE7204616
:102E80000A4B98470A4B9847002091E78139400048
:102E90003D24400035284000013B400019384000E7
:102EA00004ED00E089244000A13940005D28400085
:102EB000FD33400095324000E138400015374000B6
:102EC000B138400010B40B4B1B6853B10123094CBF
:102ED00054F8332032B10133082BF9D15DF8044B9B
:102EE00070470023034A42F8331002EBC3035860D3
:102EF000F4E700BF04CA402070B504460D461646EC
:102F00000F4B9847636CB3F1FF3F0BD0A36CB3F149
:102F1000FF3F0AD00B4B9847A36B4BB120460A4B9F
:102F2000984770BD00236364F0E70023A364F1E7D2
:102F30003246294604F12400044B9847EEE700BFCF
:102F40003D244000892440005D284000993740001E
:102F5000084B1B681B683BB1064B1B68DB68DB68D2
:102F60005A68054B1A6070474FF0FF32024B1A60E7
:102F7000704700BF08C84020B4C8402010B50F4BB0
:102F80001B6858600E4B1B6898420ED304460D4BCD
:102F900018680A4B196804310B4B98470B4B1B6898
:102FA0009C4201D2094B1C6010BD094B1868034BB1
:102FB00019680431044B984710BD00BF04C8402075
:102FC000FCC8402008C8402025234000B4C8402049
:102FD0000CC840202DE9F04F83B00C9DDDF834A0E3
:102FE0000E9E60B1042D15D94FF0800372B683F3A5
:102FF0001188BFF36F8FBFF34F8F62B6FEE74FF0BC
:10300000800372B683F31188BFF36F8FBFF34F8FC6
:1030100062B6FEE70190984691460F4636B9900099
:10302000624B98470646002800F09E8058205F4B70
:1030300098470446002800F0948006634FEA89020E
:10304000A52130465A4B98476FF040464E44236BBB
:1030500003EB860323F007063B7884F834303B7893
:10306000002B40F08480002784F83D70E562A56461
:10307000E76404F104094846DFF884B1D84704F155
:103080001800D8472461C5F10503A3616462276570
:1030900084F85470424601993046464B9847206068
:1030A000BAF1000F01D0CAF80040434B9847434A99
:1030B000136801331360424B1B68002B66D1404BF1
:1030C0001C601368012B21D13E4F38463E4EB0475D
:1030D00007F11400B04707F12800B04707F13C00A2
:1030E000B04707F15000B047DFF818814046B047BD
:1030F000364F3846B0473648B0473648B04736486E
:10310000B047364BC3F80080354B1F60354A136813
:10311000013313602364E06A334A1168012383405A
:103120000B43136000EB80004946264B03EB800005
:103130002E4B98472E4B98472E4B1B68002B31D0B7
:103140001F4B1B68DB6A9D422ED94FF080522A4BE1
:103150001A60BFF34F8FBFF36F8F012003B0BDE83C
:10316000F08F3046254B98474FF0FF30F6E73B464F
:1031700004F134020937597802F8011F13F8011FCE
:1031800000293FF470AFBB42F5D16CE7194B1B68C7
:10319000002BBBD10A4B1B68DB6A9D42B6D3084BA0
:1031A0001C60B3E70120D9E70120D7E7992640004A
:1031B000B5704000F12340003D24400074C8402019
:1031C00004C8402010C84020F1224000A0C8402080
:1031D000BCC84020E8C84020D4C8402008C84020CF
:1031E0000CC8402080C8402088C840200D234000E3
:1031F00089244000D0C8402004ED00E009274000A9
:10320000072340008CC8402010B584B000230393EE
:10321000029301930093822216491748174CA04746
:1032200001280BD020BB4FF0800372B683F31188C6
:10323000BFF36F8FBFF34F8F62B6FEE7104B984717
:103240000128EFD14FF0800372B683F31188BFF3EA
:103250006F8FBFF34F8F62B64FF0FF32094B1A608A
:103260000122094B1A600022084B1A60084B98474C
:1032700004B010BD78994000AD354000D52F400016
:10328000ED3B4000B4C84020D0C84020FCC84020DE
:1032900071254000024A136801331360704700BF74
:1032A0007CC84020014B1868704700BFFCC8402014
:1032B0002DE9F047424B1B68002B78D1414B1A682F
:1032C00001321A601E68D6B93F4B1B681B6853B1A8
:1032D0004FF0800372B683F31188BFF36F8FBFF393
:1032E0004F8F62B6FEE7384A1168384B1868106095
:1032F0001960374A136801331360364B9847364BD1
:103300001B689E4218D20024344B1B68DB6A03EB17
:103310008303334A52F82330022B28BF0124314B58
:103320001B680BB9304B9847304B1B68002B0CBF08
:1033300020460120BDE8F0870024DFF88C90DFF8FC
:10334000B8802B4F1FE04FF0FF32234B1A60DBE7B2
:10335000214A1360D8E705F11800C047E86A3A68C7
:103360000123834013433B6000EB800051461C4B1C
:1033700003EB80001F4B9847184B1B68EA6ADB6A17
:103380009A4228BF0124D9F800301B68002BDAD0FC
:10339000D9F80030DB68DD686B689E42D8D305F150
:1033A000040A5046C047AB6A002BD4D1D6E70D4A79
:1033B0001368013313600C4B98470024B4E700BF37
:1033C0007CC84020FCC8402008C840200CC84020D1
:1033D000B8C84020512F4000B4C8402004C8402045
:1033E00010C8402078C84020A141400000C94020BA
:1033F00088C840200D234000592340002DE9F843A0
:10340000384B1B6853B94FF0800372B683F31188B1
:10341000BFF36F8FBFF34F8F62B6FEE7324B984713
:10342000304B1A68013A1A601B68002B55D12F4B9C
:103430001B68002B32D100242D4B98472046BDE855
:10344000F883FB68DC6804F11800B04704F1040855
:103450004046B047E06A2A680123834013432B604B
:1034600000EB8000414609EB8000224B9847224B3D
:103470001B68E26ADB6A9A420CD23B68002BE0D1FF
:103480001E4B1B68DBB11D4B1B68C3B11C4E1D4D91
:103490001A4C0EE001221B4B1A60EEE71A4F1B4E2E
:1034A0001B4DDFF87490E8E72368013B2360236835
:1034B0002BB1B0470028F7D001232B60F4E7114B64
:1034C0001B68012B0BD14FF08052124B1A60BFF3D7
:1034D0004F8FBFF36F8F0124AEE70024ACE70024C9
:1034E000AAE700BF7CC840203D24400074C84020AB
:1034F000892440000D23400004C8402078C84020A3
:10350000B132400000C94020BCC8402059234000CF
:1035100088C8402004ED00E010C8402010B5002805
:1035200029D00446184B1B6853B14FF0800372B684
:1035300083F31188BFF36F8FBFF34F8F62B6FEE73F
:10354000124B9847124B1B681C44124B18680430EE
:10355000114B984748B90F4B1A6810490B68D06A4D
:103560000122824023EA02030B6020460C4B98475D
:103570000C4B984738B94FF080520B4B1A60BFF391
:103580004F8FBFF36F8F10BD7CC840209532400035
:10359000FCC8402004C840205923400088C840206F
:1035A0007D2F4000FD33400004ED00E080B5DFF8E2
:1035B0008880194EDFF884902AE0184B1B68012B95
:1035C0001ED82B68002BF8D0C0473468B847002CB1
:1035D000F7D0134B9847F368DC68201D114B9847D0
:1035E000114A1368013B13602B68013B2B600F4BA2
:1035F0009847206BDFF848A0D0472046D047E0E747
:103600004FF08053C9F80030BFF34F8FBFF36F8F77
:10361000074D084FD5E700BFE8C8402010C840203C
:103620003D2440005923400074C8402089244000B4
:1036300084C84020FD3340009532400004ED00E096
:10364000092740002D4B1B68002B2CD110B5002200
:103650002B4B1A602B4B1B681B6B1A68B2F1A53FF2
:1036600003D15A68B2F1A53F21D0264B18681968DA
:103670003431254B9847254B1B68B3FA83F3DBB2F3
:10368000C3F11F0303EB8301214A52F82120BAB989
:103690004FF0800372B683F31188BFF36F8FBFF3CF
:1036A0004F8F62B6FEE70122154B1A6070479A6889
:1036B000B2F1A53FD9D1DB68B3F1A53FD5D1DAE7A7
:1036C000134A9900C81802EB80004468646844609B
:1036D000194402460832944209D003EB83030C4A92
:1036E00002EB83035B68DA68064B1A6010BD606802
:1036F000074A02EB81025060EFE700BF7CC8402020
:1037000000C9402004C840208941400088C84020AA
:1037100010C8402038B5E0B10C46174D2968183163
:10372000164B984728680430154B984740B92A68CB
:1037300014490B68D06A0122824023EA02030B601D
:10374000B4F1FF3F10D0104B186820440F4B98473E
:1037500038BD4FF0800372B683F31188BFF36F8FCB
:10376000BFF34F8F62B6FEE7034B19680431084878
:10377000084B984738BD00BF04C8402025234000AF
:103780005923400088C84020FCC840207D2F4000BD
:10379000D4C840200D234000E8B170B515460C4652
:1037A000164E31681831164B984730680430154B67
:1037B000984740B9326814490B68D06A01228240A8
:1037C00023EA02030B60012D10D0104B186820442F
:1037D0000F4B984770BD4FF0800372B683F311888A
:1037E000BFF36F8FBFF34F8F62B6FEE7034B1968CD
:1037F00004310848024B984770BD00BF04C8402000
:103800000D2340005923400088C84020FCC84020B8
:103810007D2F4000D4C8402038B5C368DC6824B38D
:1038200004F1180528461A4B98471A4B1B683BBBF6
:10383000251D2846164B9847E06A174A1168012350
:1038400083400B43136000EB80002946134B03EBCE
:103850008000134B9847134B1B68E26ADB6A9A425D
:1038600013D90120104B186038BD4FF0800372B699
:1038700083F31188BFF36F8FBFF34F8F62B6FEE7FC
:1038800029460A48064B9847E5E7002038BD00BFA7
:10389000592340007CC8402088C8402010C84020E0
:1038A0000D23400004C8402000C94020BCC840206F
:1038B00030B1094A12680260084A126842607047D3
:1038C0004FF0800372B683F31188BFF36F8FBFF39D
:1038D0004F8F62B6FEE700BFB8C84020FCC840204A
:1038E00038B5C0B1044609B30D461D4B98471D4B72
:1038F0001A682B68B3F1FF3F2ED01B490968206876
:10390000884202D061688A4228D26168501A834294
:1039100017D801241CE04FF0800372B683F311889E
:10392000BFF36F8FBFF34F8F62B6FEE74FF0800398
:1039300072B683F31188BFF36F8FBFF34F8F62B6F8
:10394000FEE79B1A0B442B602046084B9847002447
:10395000074B9847204638BD0024F9E70124F7E7D4
:103960003D244000FCC84020B8C84020B138400089
:10397000892440000122014B1A60704700C9402091
:10398000054B1B6833B1054B1B68002B0CBF022095
:103990000020704701207047D0C840207CC84020DC
:1039A000002844D038B50446C26A21490968C96A6A
:1039B0008A4214D28169002905DB1D490968C96A58
:1039C000C1F10501816102EB82021A4901EB820219
:1039D0006169914204D0164A1268D26AE26238BD27
:1039E000251D2846144B984770B9E36A03EB830101
:1039F000104A52F821203AB910480268012101FA10
:103A000003F322EA03030360094B1B68D86AE062F0
:103A10000A4A1168012383400B43136000EB8000C6
:103A20002946044B03EB8000054B984738BD70478F
:103A300004C8402010C840205923400088C84020B6
:103A40000D23400000284DD038B50446274A12689F
:103A500090420AD04FF0800372B683F31188BFF30F
:103A60006F8FBFF34F8F62B6FEE7C26C52B94FF053
:103A7000800372B683F31188BFF36F8FBFF34F8F4C
:103A800062B6FEE7013AC264C06AA16C88422BD0DC
:103A900052BB251D2846164B984768B9E16A01EBD1
:103AA0008102144B53F8223033B9134803680122C2
:103AB0008A4023EA02030360A06CE062C0F10503C0
:103AC000A3610D4A1168012404FA00F30B4313604B
:103AD00000EB80002946074B03EB8000074B98471B
:103AE000204638BD00207047002038BD04C8402063
:103AF0005923400010C8402088C840200D234000B2
:103B0000054B1B6823B1044B1A68D36C0133D36493
:103B1000014B1868704700BF04C8402008B54160D9
:103B2000006191420CD8D21A83699A4201D30120D4
:103B300008BD011D094B1868094B9847002008BDB6
:103B40009A4203D2994201D3012008BD011D054BC1
:103B50001868034B9847002008BD00BF08C94020E3
:103B60002523400004C9402070B5154B9847154BDC
:103B70001B6813B1144B984770BD144D2846144E62
:103B8000B047144C2046B047134B1D60134B1C60CC
:103B9000002210210520124B98470A4B186018B1DB
:103BA0001049114B9847E5E74FF0800372B683F355
:103BB0001188BFF36F8FBFF34F8F62B6FEE700BF70
:103BC0003D24400038C94020892440000CC94020D1
:103BD000F122400020C9402004C9402008C94020EB
:103BE0009529400080994000C52E400010B584B052
:103BF0000F4B98470F4B1B6873B10023039302933D
:103C00000193042200924FF482720B490B480C4C32
:103C1000A04708B104B010BD4FF0800372B683F323
:103C20001188BFF36F8FBFF34F8F62B6FEE700BFFF
:103C3000693B400038C94020889940006D3D4000F4
:103C4000D52F4000D8B130B585B015460446154A89
:103C5000106820B31A46009101950294052919DCD9
:103C6000114B984702284FF000030CBF089A1A46E0
:103C700069460C4800680D4CA04705B030BD4FF0B8
:103C8000800372B683F31188BFF36F8FBFF34F8F3A
:103C900062B6FEE700236946054CA047EDE7002029
:103CA000EBE700BF38C9402081394000112A4000AD
:103CB000F52B40002DE9F04782B08046244B984711
:103CC0000746244B1B6898421BD30023C8F80030DA
:103CD000204B1F60384602B0BDE8F08700210091FC
:103CE0000B46524620461C4CA04760B94FF080035B
:103CF00072B683F31188BFF36F8FBFF34F8F62B635
:103D0000FEE7164D164E2B681A68C2B1DB68D3F871
:103D100000A0DC6804F104094846B047636A204605
:103D20009847E369012BEED1A36953449A45D5D254
:103D300063602461494628680A4B9847E3E70A4ACA
:103D400010680649086013600123C8F80030BFE717
:103D5000A532400034C94020453C400004C9402001
:103D6000592340002523400008C940202DE9F04791
:103D700088B0754E754FDFF8FC91DFF8FC81336831
:103D80001A68002A00F0CE80DB681C68B84704A8D7
:103D90006F4B98470546049B002B44D1A04212D29A
:103DA0000022611B6B4B18686B4B98476B4B984715
:103DB00000283AD14FF08053C9F80030BFF34F8F3D
:103DC000BFF36F8F31E0654B98473368DB68D3F8FA
:103DD0000CA00AF10400C047DAF81C30012B04D013
:103DE000DAF82430504698471FE0DAF818102346D6
:103DF0002A46214450465A4DA8470128F0D10021B7
:103E000000910B4622465046564CA0470028E7D169
:103E10004FF0800372B683F31188BFF36F8FBFF347
:103E20004F8F62B6FEE74D4B98474A4D4E4C06E029
:103E300007990698059B9847049B002B09DA0023F5
:103E40001A4604A92868A047002898D0049B002B94
:103E5000EEDBDDF818A0DAF8143013B10AF1040033
:103E6000C04703A83A4B9847049B092BE7D801A207
:103E700052F823F09D3E40009D3E40009D3E400094
:103E80003F3E4000F13E40001D3F40009D3E40004F
:103E90009D3E40003F3E4000F13E4000059CDAF868
:103EA000181023460246214450462D4CA0470128B5
:103EB000BCD1DAF8243050469847DAF81C30012B90
:103EC000B4D1DAF81820002100910B46059802447D
:103ED0005046244CA0470028A8D14FF0800372B66A
:103EE00083F31188BFF36F8FBFF34F8F62B6FEE786
:103EF0000599CAF8181031B10346024601445046EC
:103F0000174CA04792E74FF0800372B683F31188F5
:103F1000BFF36F8FBFF34F8F62B6FEE75046134B70
:103F2000984783E7B84704A8094B98470546049B80
:103F3000002B7FF478AF0E4B1B681A68B2FA82F23E
:103F4000520900242DE700BF04C9402095324000EB
:103F5000B53C400038C94020F92E4000FD334000F8
:103F60001D3B4000453C4000F52C40000927400027
:103F700008C9402004ED00E05923400010B582B08C
:103F8000074B06225A669B6E0193002302AA42F851
:103F9000083D01A903480068034CA04702B010BDCA
:103FA0000040064048CA4020F52B4000F0B583B0E1
:103FB00005460C46002301932A4B984213D02A4B06
:103FC000984218D0294B98421DD0294B9D4222D0AF
:103FD000284B9D4227D0284B9D422ED0274B9D42F7
:103FE00035D003B0F0BD1F46254E21463846B047B8
:103FF0000028FAD1E9E71F46214E21463846B0474E
:104000000028FAD1E4E71F461D4E21463846B04746
:104010000028FAD1DFE71F46194E21463846B0473F
:104020000028FAD1DAE71E46164D01A93046A84706
:104030000028FAD1019B2370D3E71E46114D01A938
:104040003046A8470028FAD1019B2370C9E71E46D5
:104050000C4D01A93046A8470028FAD1019B2370D6
:10406000BFE700BF00080E40000A0E40001A0E40D5
:10407000001C0E40004002400080024000C0024090
:104080001B1F40002720400070B50C462A4B984269
:1040900013D02A4B984219D0294B98421FD0294B54
:1040A000984225D0284B98422BD0284B984231D0AB
:1040B000274B984237D0002070BD1E46254D214623
:1040C0003046A8470028FAD1012070BD1E46214D78
:1040D00021463046A8470028FAD1012070BD1E466F
:1040E0001C4D21463046A8470028FAD1012070BD5A
:1040F0001E46184D21463046A8470028FAD1012017
:1041000070BD1E46144D21463046A8470028FAD1FE
:10411000012070BD1E46104D21463046A84700289C
:10412000FAD1012070BD1E460B4D21463046A847EE
:104130000028FAD1012070BD00080E40000A0E4090
:10414000001A0E40001C0E40004002400080024059
:1041500000C00240091F40001120400000B583B09C
:1041600001210648064B98470190019B054B4022D0
:104170005A6102221A6003B05DF804FB00C00040DF
:10418000070540000040064008B50A4601460248BF
:10419000024B9847FEE700BF149A4000E9694000CF
:1041A00070474FF0800372B683F31188BFF36F8FAF
:1041B000BFF34F8F62B6FEE710B50648064B98472F
:1041C00040F23F1340F2DF1200210846034CA047A3
:1041D00010BD00BFFCFCFC00C512400015154000DE
:1041E0002DE9F04784B00546894690464FF0000A15
:1041F0005446154F154E08E00134E4B24FF0010A61
:104200002846B047022C1BD8D0B101A92846B84790
:104210000028F5D1BAF1000FEED1BDF80830C3EB9C
:104220000313C3F3D313C3F5F073C9F80030BDF81B
:10423000063003EB8303C3F39313C8F80030DBE7C6
:1042400004B0BDE8F08700BFE50A4000750A4000F1
:1042500080B58AB002A80C4B98470C4C0C4F0D4E01
:1042600002E064200C4B984702A8A0470028F8D031
:1042700001AA694602A8B84700231A466946306871
:10428000064DA847EDE700BF81054000750A4000D4
:10429000E14140005CCA40201D354000112A400029
:1042A000F8B50D46104B9847104C0BA3D3E90023EB
:1042B000A0470BA3D3E900230D4EB0470D4B984701
:1042C00006460F4628460C4B984732463B46A047C9
:1042D000F8BD00BFAFF30080F1D4C853FB211940F3
:1042E0000000000000FEAF40E9624000D5634000DE
:1042F000296640008D4C400009634000000000002A
:10430000F8B50D46104B9847104C0BA3D3E900238A
:10431000A0470BA3D3E900230D4EB0470D4B9847A0
:1043200006460F4628460C4B984732463B46A04768
:10433000F8BD00BFAFF30080F1D4C853FB21194092
:104340000000000000FEAF40E9624000D56340007D
:1043500029664000214D4000096340002DE9F04FDF
:1043600087B0002208210A203B4CA0473B4B186035
:10437000002208210A20A047394B186039484FF421
:10438000F07303604FF4A0734360374B8360C360E6
:10439000364B98470120364B9847364B98470020BC
:1043A000354B98476922A021F020344B98474FF0B5
:1043B000500B334C334F0026059D59462846A047E5
:1043C000CDE9000159462846B8478046894633461C
:1043D0004FF4FA7202A9214800682B4DA8473346D2
:1043E000642204A91E480068A8470028E4D030468B
:1043F000DFF884A0D047254D0022254B4046494692
:10440000A847DFF89480C04781460022214BDDE9B0
:104410000001A847C04702224946DFF86090C8471C
:104420004FF47C00D047DDF814A059465046A04711
:10443000CDE9000159465046B8470022144BA84721
:10444000C04782460022134BDDE90001A847C04760
:1044500002225146C847AFE7952940005CCA402078
:1044600044CA40204CCA4020FCFCFC0051134000D0
:1044700005124000B9414000C5124000D11540006E
:10448000A142400001434000F52C40007160400013
:104490000000644000006E40596940002DE9F0437F
:1044A00085B006460C461746984608461E4B984768
:1044B0001E4D009502AB03AA29464046DFF88C90BA
:1044C000C847029A42F4804239463046184B984712
:1044D000039AB5FBF2F2B2FBF8F239463046154BBF
:1044E000984763B2002B17DB134A8021D1545B0934
:1044F00004F01F04012202FA04F4104A42F8234097
:104500001022394630460E4B9847394630460D4BFF
:10451000984705B0BDE8F08304F00F010A4A0A4449
:1045200080211176E3E700BF3D1B400000A3E111AD
:10453000D5044000F704400000E400E000E100E0A2
:10454000FF044000EF044000FCEC00E00F054000D9
:10455000F0B5B7B000220421C8203B4B98473B4B35
:1045600018603B4C20463B4B984706A83A4B98476F
:1045700006A92046394B9847636823F08F03636090
:1045800003A8374B984700268DF80D6003AA062133
:104590002046344B9847062565664FF40073E36662
:1045A00004A8314B984704A92046304B9847012373
:1045B0002F4A294620462F4CA0472F4B802283F8B4
:1045C00028234FF480725A606423012218212B485B
:1045D0002B4CA0470123009327AB2A4A0C210CA89F
:1045E000294CA047194D294C294F18E001230FAA47
:1045F0001BA90CA8B847DDED1B7AFDEEE77ACDEDDF
:10460000337ADDED0F7AFDEEE77ACDED347A0023D3
:104610001A4633A91F4800681F4EB04700260023E2
:10462000642235A92868A0470028F8D00C2EDDDCCC
:1046300036AB03EB8603DDED357AF8EE677A43EDB2
:104640001B7A0136EBE700BF9529400048CA40209D
:104650000040064071044000A1024000F102400009
:10466000D10240005D024000DB0240008D024000AC
:104670007D3F4000F103400000E100E000C0004049
:104680009D44400090994000D1474000F52C4000E7
:10469000F547400044CA4020112A400000B58BB0C5
:1046A000314B9847314B9847314D324B1D60324A60
:1046B000324B1A60324A334B1A604FF4E1330493A1
:1046C000C02305934FF400630693002407940894D5
:1046D0000E202D4B98472D4A04A928462C4B98476D
:1046E00028462C4B984728462B4B98472B4E33682F
:1046F000214698682A4DA847336821465868A8473C
:10470000039402940194009423464FF400722549C7
:104710002548264CA047012802D02548254B98471C
:10472000002303930293019300934FF4C062224944
:1047300022481E4CA047012802D01D481D4B984717
:10474000002303930293019300934FF4C0621C492A
:104750001C48164CA047012802D01B48154B98470F
:104760001A4B9847FEE700BF550B4000E50D40008F
:104770000080024000CA402089404000FCC940201F
:10478000AD3F4000F8C940203D1B400080D1F008FB
:10479000B11F4000052040000B20400014004020C5
:1047A0008D714000C099400051424000D52F40001B
:1047B000C4994000E9694000E89940005D43400029
:1047C000EC99400051454000F0994000093240000A
:1047D00070B5049D826005F18045013D0D44018066
:1047E00004461E46AA001846002102F063FC6660DB
:1047F00070BD00BF2DE9F00F2DED0C8B8AB002903B
:10480000029C0088D4F8048000F18049019009F1ED
:10481000FF39D808039308EB8909D4F808A004905D
:1048200000F0E281019CCDF81890E00843010AEB0A
:10483000030400941C33019C0593049B04F0070BB4
:104840004C46DDF814900E4608F11C0C4746CDF896
:104850001C8008911546D846194609929FEDB23A38
:104860003368624623607368F0EE431A6360B3688E
:10487000B0EE431AA360F368F0EE430AE3603369D5
:10488000B0EE430A23617369B0EE438A6361B36992
:10489000F0EE438AA361F369B0EE439AE361D7ED8A
:1048A000004AD7ED017A97ED027AD7ED036A97EDCA
:1048B000046AD7ED055A97ED065A002800F0E38107
:1048C00052466346834692ED002AD3ED003AD2ED7C
:1048D000012A64EE82CA67EE82BAD3ED014A27EE5E
:1048E00002BA66EE82AA26EE02AA65EE829A25EE4A
:1048F00002CA23EE824A3CEE899A92ED022A67EEC2
:10490000A2CA34EE033AD3ED027A7BEEA88A3BEEDC
:10491000088A67EE22BA26EEA2BA3AEE800A7AEE4A
:10492000200A66EE22AA25EEA2AA39EE811A7CEEB2
:10493000211A65EE229A23EEA2CA24EEA24A23EEA1
:1049400082DAD2ED032A34EE034A3CEE899A7BEEFA
:10495000A88A67EE02CA66EE82BA93ED037A3BEE4E
:10496000088A3AEE800A26EE02BA65EE82AA7AEE4C
:10497000200A39EE811A25EE02AA7CEE211A24EED5
:1049800082CA27EE822A92ED043A65EE229A3CEE24
:10499000899A7BEEA88A66EEA2CA66EE22BAD3EDA9
:1049A000046A3BEE088A3AEE800A25EEA2BA63EE6C
:1049B000A2AA7AEE200A3DEE011A7CEE211A24EE1C
:1049C000A2DA27EEA2CA32EE042A67EE222A92ED7C
:1049D000054A25EE03AA32EE822A3CEE899A7BEE46
:1049E000A88A66EE03CA65EE83BA93ED056A3BEECC
:1049F000088A39EE800A23EE83BA7AEEA00A3DEEE9
:104A0000011A64EE83AA27EE83DA7CEE211A66EEA1
:104A1000832A27EE03CA65EE049A92ED063A3CEE2D
:104A2000899A7BEEA88A65EE84CA67EE04BAD3ED54
:104A3000065A3AEE088A3BEE000A23EE84AA24EED8
:104A400084BA7AEEA00A7CEE211A67EE84AA72EE8E
:104A5000822A26EE84CA26EE042A3DEE011A92ED41
:104A6000074A72EE222A3CEE899A79EEA88A65EE10
:104A700003CA63EE839A3AEE088A3BEE000A24EEFC
:104A800083AA27EE83BA7AEEA00A3BEE811A67EE7C
:104A900003AA66EE83BA26EE032A93ED075A7CEE4C
:104AA000211A25EE833A63EE843A79EEA88A3AEE2B
:104AB000088A64EE849A27EE84AA3BEE000A7AEE16
:104AC000A00A27EE04BA66EE84AA3BEE811A33EE02
:104AD000223A66EE04BA65EE842A3CEE899A72EEBA
:104AE000211A25EE044ABBF1010B02F1200233EE3C
:104AF000899A79EEA88A3AEE088A3BEE000A7AEEA5
:104B0000A00A3BEE811A72EEA11A34EE033A03F1C9
:104B100020037FF4D8AEDDF800B007EB0902B8F14E
:104B2000000F37D043460FE000000000F0EE674A68
:104B3000F0EE477AB0EE667AF0EE466AB0EE656A5D
:104B4000F0EE455AB0EE635ABBEC014AF2EC013A82
:104B500064EE844A27EE84BA67EE04AA26EE84AA9D
:104B600066EE049A25EE842A65EE042A23EE844A32
:104B7000013B39EE249A78EE8B8A38EE2A8A30EEA1
:104B80000A0A70EEA90A31EE021A71EEA21A33EE89
:104B9000043ACBD1013985ED009AC5ED018A85ED46
:104BA000028A85ED030AC5ED040A85ED051AC5EDF7
:104BB000061A85ED073A07F1200706F1200605F1F0
:104BC000200504F120040CF1200C7FF447AE04987A
:104BD000DDF81890DDF81C800899099A4301994482
:104BE000194498441A44039B13F007071ED0DDF8BC
:104BF00004C03E4645465FED347A51F8043B5446C6
:104C000049F8043B28466346F0EC016AB4EC017AAB
:104C100026EE877A013B77EE877AF5D1013EE2EC0A
:104C2000017A05F10405E6D108EB8708019C651EB1
:104C3000029CAE08606817D04246034631461468AD
:104C400001391C60546803F1100343F80C4C94685C
:104C500002F1100243F8084C52F8044C43F8044C9B
:104C6000EDD133011844984415F0030305D058F8EA
:104C7000042B013B40F8042BF9D10AB0BDEC0C8B9E
:104C8000BDE8F00F7047D34649E700BF30B5224A70
:104C900021F00043934287B01BDD204A934205DD9B
:104CA00002460B4601F0E2F907B030BD02AA00F05F
:104CB0007BF800F00303012B1AD0022B0FD01BB39B
:104CC0000124DDE90423DDE90201009400F0FCFF8A
:104CD000EAE70022002300F08BFA07B030BDDDE9DF
:104CE0000423DDE9020100F083FA01F10041DBE772
:104CF000DDE904450093DDE9020122462B4600F080
:104D0000E3FF01F10041CFE7DDE90423DDE9020122
:104D100000F06EFAC8E700BFFB21E93FFFFFEF7F1D
:104D200030B51F4A21F00043934287B01BDD1D4A76
:104D3000934205DD02460B4601F098F907B030BDFD
:104D400002AA00F031F800F003000128DDE9042395
:104D50001AD002280FD0E0B1DDE9020100F048FAD4
:104D600001F10041EAE7002300930022002300F054
:104D7000ABFF07B030BD0124DDE90201009400F073
:104D8000A3FF01F10041D9E7DDE9020100F030FAAB
:104D9000D4E70124DDE90201009400F095FFCDE79E
:104DA000FB21E93FFFFFEF7F2DE9F04F9A4E21F005
:104DB0000047B74291B040F38E809246974A97429F
:104DC0000C4626DC00298AA3D3E9002340F3B481F2
:104DD00001F04CF9924B9F4204460D4600F0908042
:104DE00085A3D3E9002301F041F902460B46CAE945
:104DF00000232046294601F039F97FA3D3E9002397
:104E000001F034F90125CAE90201284611B0BDE8D4
:104E1000F08F844A974240F39080834A974265DC42
:104E20003D15A5F21645A7EB055319461F46064644
:104E300001F06AFD01F068FA8046894602460B4699
:104E400030463946CDE90A8901F010F90022774B46
:104E500001F0C0FA8946804601F056FD01F054FA8F
:104E600002460B4606460F4640464946CDE90C67CA
:104E700001F0FCF800226D4B01F0ACFA0022002397
:104E8000CDE90E0101F00EFD002800F07381002332
:104E900030463946002201F005FD002814BF0123E9
:104EA0000223634A019202212A4600910AA8514630
:104EB00000F0C2FA002C054614DADAF80420DAF819
:104EC0000C3002F1004203F100434542CAF80420CD
:104ED000CAF80C3006E0C2E9000100250024C2E94E
:104EE00002450025284611B0BDE8F08F02460B466A
:104EF00001F0BCF80025CAE90201CAE90001F1E7A6
:104F00003FA3D3E9002301F0B1F83FA3D3E9002385
:104F10000D46044601F0AAF802460B46CAE90023F2
:104F20002946204601F0A2F837A3D3E9002301F077
:104F30009DF80125CAE90201D4E700F07BFF34A304
:104F4000D3E900238046894601F044FA0022394B18
:104F500001F08EF801F0D8FC054601F0D5F924A344
:104F6000D3E90023CDE9040101F034FA02460B46EF
:104F70004046494601F07AF81FA3D3E90023804652
:104F80008946DDE9040101F025FA1F2DCDE9020172
:104F900054DC294B6A1E53F822309F424ED0024601
:104FA0000B464046494601F061F802460B46CAE905
:104FB000002383460E465A4633464046494601F092
:104FC00055F8DDE9022301F051F8002C02460B46AA
:104FD000CAE9022386DA5B4606F1004601F1004188
:104FE0008AE84800CAF80C10CAF808006D4279E750
:104FF00000004054FB21F93F3163621A61B4D03D97
:105000000000601A61B4D03D7370032E8A19A33B6F
:1050100083C8C96D305FE43FFB21E93F7BD9024083
:10502000FB21F93FFB213941FFFFEF7F0000704179
:10503000AC9A40000000E03F2C9A4000DDE90223DA
:105040004046494601F012F83A15C1F30A53D31A03
:10505000102B83460E460992CAE90001ABDD58A326
:10506000D3E90023DDE9040101F0B4F906460F4657
:1050700002460B464046494600F0F8FFCDE90601DE
:1050800002460B464046494600F0F0FF32463B469A
:1050900000F0ECFF4CA3D3E9002306460F46DDE900
:1050A000040101F097F932463B4600F0DFFFDDE9ED
:1050B0000689CDE9020102460B464046494600F00A
:1050C000D5FF0B46C1F30A570E460999CF1B02467E
:1050D000312F8346CAE900236CDD3DA3D3E90023C9
:1050E000DDE9040101F076F906460F4602460B465B
:1050F00040464946CDE9068900F0B8FF02460B4616
:1051000080468946DDE9060100F0B0FF32463B46A5
:1051100000F0ACFF30A3D3E9002306460F46DDE9DB
:10512000040101F057F932463B4600F09FFF02466A
:105130000B46CDE9022334E700F09AFF2A4B9F4249
:1051400004460D4618D026A3D3E9002300F090FFB3
:1051500002460B46CAE900232946204600F086FF96
:105160001FA3D3E9002300F083FF4FF0FF35CAE906
:105170000201B7E6032394E611A3D3E9002300F06C
:1051800077FF11A3D3E900230D46044600F070FF1A
:1051900002460B46CAE900232946204600F066FF76
:1051A00009A3D3E9002300F063FF4FF0FF35CAE9FC
:1051B000020197E6DDE90689FDE600BFAFF3008056
:1051C0000000601A61B4D03D7370032E8A19A33BAE
:1051D0000000002E8A19A33BC14920259A837B3900
:1051E0003163621A61B4D03DFB21F93F0000000039
:1051F0002DE9F04F21F00046B6F1795F85B00C46FD
:1052000092469B4605466BDA01F07EFB002800F0D3
:10521000E8802A4623462846214601F0DBF874A39D
:10522000D3E900238046894601F0D4F872A3D3E97C
:10523000002300F01DFF42464B4601F0CBF870A35F
:10524000D3E9002300F012FF42464B4601F0C2F8BA
:105250006DA3D3E9002300F00BFF42464B4601F05B
:10526000B9F86BA3D3E9002300F000FF42464B4698
:1052700001F0B0F868A3D3E9002300F0F9FE42463C
:105280004B4601F0A7F8CDE900010022644B4046EF
:10529000494601F09FF8DDE9002306460F464046E7
:1052A000494601F097F85246804689465B462846B3
:1052B000214601F08FF802460B464046494600F071
:1052C000D5FE02460B463046394600F0CFFE024678
:1052D0000B460020534900F0C9FE05B0BDE8F08F31
:1052E00002460B4601F076F841A3D3E9002380463D
:1052F000894601F06FF840A3D3E9002300F0B8FE1F
:1053000042464B4601F066F83DA3D3E9002300F086
:10531000ADFE42464B4601F05DF83BA3D3E90023C6
:1053200000F0A6FE42464B4601F054F838A3D3E9FC
:10533000002300F09BFE42464B4601F04BF836A39B
:10534000D3E9002300F094FE4B46424601F042F8B8
:10535000354B9E42CDE9000197DD344B9E424FF024
:10536000000238DCA6F5001300202E4916461F4621
:1053700000F07CFECDE902010022294B404649465F
:1053800001F028F832463B4600F070FEDDE90023CC
:1053900006460F464046494601F01CF852468046F4
:1053A00089465B462846214601F014F802460B4622
:1053B0004046494600F05AFE02460B463046394602
:1053C00000F054FE02460B46DDE9020100F04EFEFD
:1053D00005B0BDE8F08F164B164FCDE9022300262D
:1053E000CAE71049002005B0BDE8F08FAFF3008098
:1053F000D43888BEE9FAA8BDC4B1B4BD9EEE213E42
:10540000AD529C804F7E923E9015CB19A001FA3E82
:105410007751C1166CC1563F4C5555555555A53F52
:105420000000E03F0000F03F3233D33F0000E93F8F
:105430000000E73F0000D23F2DE9F04FADF5197DA8
:105440009C4CA29E9C4D54F8264005942646D41EA2
:1054500085FB0475E417C4EBA50424EAE4741D4637
:105460000893631CA3EB8303013D02EBC303049386
:105470002B4609940295651BF418039006911AD4E3
:105480002C4401340DF1780800260027DDF88C92B9
:1054900008E059F8250000F037FF0135A542E8E99A
:1054A000020108D0002DF4DA013530463946A54214
:1054B000E8E90201F6D1059B002B2EDB089B4FEAA1
:1054C000C309039BA9F10808984420AB9944059BA4
:1054D00070AA02EBC30B0DF5DC7A029B002BC0F225
:1054E0000F83039B4D46A3F108040026002775E9AE
:1054F0000223F4E9020100F06DFF02460B4630463C
:10550000394600F0B5FD444506460F46EFD1EAE9BD
:105510000267DA4509F10809DFD10598089A009079
:1055200000F18043013B9B000CAC191F234402F1A6
:1055300000520B93039B013A21440A9103EBC20BE7
:10554000009A98A901EBC203002A53E928451346A3
:105550002BDD01EBC308A8F1A8080DF12C090DF50E
:10556000DC7A0022554B2046294600F033FF01F03B
:10557000CBF900F0C9FE0022514B06460F4600F061
:1055800029FF02460B462046294600F06FFD01F038
:10559000BBF978E8022349F8040F3946304600F099
:1055A00067FDD04504460D46DBD1DDF8109020465E
:1055B00029464A4600F0D0FC00224FF07F530446B3
:1055C0000D4600F007FF00F03BFC00223D4B00F0D1
:1055D00001FF02460B462046294600F047FD0D46D6
:1055E000044601F091F9804600F08EFE0B4602461B
:1055F0002946204600F03AFD4B46002B06460F4652
:1056000040F3F780009A0CA9013AC9F1180351F848
:10561000225045FA03F101FA03F30CA8EB1A40F803
:105620002230C9F11705884443FA05F5002D63DDE2
:10563000009B002B08F1010840F381820C9C002C98
:1056400000F01883012000230CAAC4F1807442F8F2
:105650002340009A824219DD0CAA0CAC52F82010AB
:105660006FF07F42511A44F820100099023399429A
:105670000CDD1046009A0CA901EB830301EB8201BB
:105680001A68821A43F8042B8B42F9D1049B002B31
:105690001ADD049B012B4FF0010440F05882009B5F
:1056A0005A1E0CAB0CA953F82230C3F3160341F871
:1056B000223058E2F89B4000ABAAAA2A0000703EB4
:1056C0000000704100002040022D15D132463B46BB
:1056D0000020974900F0CAFC06460F46049A9449F8
:1056E000002000F039FC02460B463046394600F0F7
:1056F000BDFC022506460F460022002330463946EF
:1057000001F0D0F8002800F05282009A059B501E4C
:1057100083420FDC02F18043013B0CAA0B9C02EB9D
:105720008303002253F80419A34242EA0102F9D18B
:10573000002A6FD1059B0CAA013B52F82330002BA5
:1057400040F033820A9A012352F8041901330029E8
:10575000FAD0009AD31802F1010A9A4507933DDC6A
:10576000009B0899099A0B4407990AEB020899468D
:1057700020AB08F1804803EBC9098B18A39A08F104
:10578000FF3802EB880870AA02EBCA0AA39A02EB60
:105790008303009358F8040F00F0B6FD029B002B22
:1057A000E9E802011DDB039B4D46A3F10804002636
:1057B000002775E90223F4E9020100F00BFE02461E
:1057C0000B463046394600F053FC5C4506460F4612
:1057D000EFD1009B9845EAE80267DBD1079B009375
:1057E000AEE6009B002600279845EAE80267D1D183
:1057F000F4E706D1009B0CAA013B52F82350ED15AB
:1058000014E700224B4B01F06BF8002840F0828136
:10581000054671E70CA9029551F820300499CDF89E
:105820001C8018390246009004916BB900F1804346
:10583000013B0CA800EB830353F80409013A183923
:105840000028F9D000920491049A3949002000F010
:1058500083FB009B002B04460D46C0F20382DA0056
:1058600070A901EB020B04920CAA02EB8306DFF88D
:10587000C8900BF1080704364FF0000856F8040DE5
:1058800000F042FD22462B4600F0A4FD4B4667E99E
:10589000020142462046294600F09CFD0CAB9E4288
:1058A00004460D46EAD10DF5907ACDF80CA0DDF84E
:1058B00014A04FF00009BAF1000FC0F23D81DFF8EB
:1058C0007C805D4618A1D1E9000100260027002454
:1058D00003E04C4510DCF8E80201F5E8022300F093
:1058E00079FD02460B463046394600F0C1FB0134D3
:1058F000A24506460F46ECDA039B03EBC903ABF166
:10590000080BC3E900676EAB5B4509F10109D2D111
:10591000A29BDDF80CA0032B00F28B80DFE813F0D4
:10592000D10090009000100000000040FB21F93FE2
:105930000000F03F0000E03F0000703EC09B4000D0
:10594000009B002B40F3A481049B0AEB0308D8E9D9
:105950000067D34658E9029A32463B4648465146CC
:1059600000F086FB04460D4602460B46484651466B
:1059700000F07CFB32463B4600F07AFBC8E90001B0
:1059800068E90245C34526462F46E3D1009B012B1B
:10599000DA4640F37D81049B5B44D3E90067984677
:1059A00099460DF5947B59E9023432461846214652
:1059B0003B46CDE9000100F05BFB04460D46024684
:1059C0000B46DDE9000100F051FB32463B4600F09A
:1059D0004FFBC9E9000169E90245CB4526462F4640
:1059E000E1D1002308F108081D464CAC18462946B1
:1059F00078E9022300F03CFB444503460D46F5D10F
:105A0000029A002A00F02081DAF80440DAF80C202B
:105A1000069FDAF80010DAF808003B6105F100454E
:105A200004F1004402F100427D617C60FA6039605B
:105A3000B860079B03F007000DF5197DBDE8F08FF6
:105A4000049C00260834544433463046194674E911
:105A5000022300F00DFB544506460B46F5D1029A91
:105A600030461946002A00F0DA80069803F1004417
:105A7000324644600660DAE9000100F0F7FA0B46AE
:105A80000099002902460EDD012410461946FAE964
:105A9000022300F0EDFA0B4600990134A1420246C0
:105AA000F3DA029909B103F100431946069B104647
:105AB000C3E90201079B03F007000DF5197DBDE85E
:105AC000F08F049C002208345444134610461946B3
:105AD00074E9022300F0CCFAA24502460B46F5D148
